:100000000C942A000C9447000C9447000C94470071
:100010000C9447000C9447000C9447000C94470044
:100020000C9447000C9447000C9447000C94470034
:100030000C9447000C9447000C9447000C94470024
:100040000C9447000C9447000C9447000C94470014
:100050000C94470011241FBECFE5D8E0DEBFCDBF12
:1000600012E0A0E6B0E0E2E5FBE302C005900D92ED
:10007000A230B107D9F712E0A2E0B2E001C01D92B0
:10008000A531B107E1F70E94D91A0C94A71D0C9471
:100090000000EF92FF920F931F937B018C0120E0F1
:1000A00030E040E05FE40E94F50388238CF0C80153
:1000B000B70120E030E040E05FE40E94C1010E940F
:1000C000B3049B01AC01205030404040504806C072
:1000D000C801B7010E94B3049B01AC01B901CA0178
:1000E0001F910F91FF90EF900895A0E0B0E0EBE733
:1000F000F0E00C94C31CDC012B01FA019C919230BE
:1001000008F439C1EB018881823008F433C194309E
:1001100069F4843009F02FC111969C91119789815F
:10012000981709F428C1A9E7B0E025C1843009F483
:1001300021C18230A9F4923009F01DC19A01AD01AC
:1001400088E0EA010990AE01E90109929E0181501F
:10015000C1F7E201898111969C918923818308C1AD
:10016000923009F407C112962D903C901397EB0141
:100170008A819B811496AD90BD90CD90DC901797AD
:10018000EC80FD800E811F819101281B390BB90184
:1001900037FF04C066277727621B730B6032710537
:1001A0000CF061C0121613066CF537014801062EDB
:1001B00004C096948794779467940A94D2F721E0C8
:1001C00030E040E050E004C0220F331F441F551FB1
:1001D0006A95D2F721503040404050402E213F21B7
:1001E00040235123211531054105510521F021E01E
:1001F00030E040E050E079018A01E628F72808293C
:1002000019293CC0232BD1F1260E371E350146019A
:10021000062E04C096948794779467940A94D2F734
:1002200021E030E040E050E004C0220F331F441FC3
:10023000551F6A95D2F721503040404050402A2146
:100240003B214C215D21211531054105510521F04E
:1002500021E030E040E050E059016A01A628B728CB
:10026000C828D9280BC0821593052CF01C01AA249C
:10027000BB24650103C0EE24FF24870111969C91E5
:10028000D20111968C91981709F445C0992339F041
:10029000A80197012A193B094C095D0906C0A6016E
:1002A00095012E193F09400B510B57FD08C01182D3
:1002B0003382228224833583468357831DC081E0A5
:1002C00081833382228288279927DC01821B930B4A
:1002D000A40BB50B84839583A683B7830DC0220F2F
:1002E000331F441F551F24833583468357838281E0
:1002F000938101979383828324813581468157813D
:10030000DA01C9010197A109B1098F5F9F4FAF4F72
:10031000BF4328F30BC0918333822282EA0CFB1C7B
:100320000C1D1D1DE482F5820683178383E0808304
:10033000248135814681578157FF1AC0C901AA27F8
:1003400097FDA095BA2F81709070A070B0705695EF
:10035000479537952795822B932BA42BB52B848318
:100360009583A683B7838281938101969383828349
:10037000DF0101C0D201CD01CDB7DEB7E2E10C94BF
:10038000DF1CA0E2B0E0E7ECF1E00C94CF1C698345
:100390007A838B839C832D833E834F835887E9E048
:1003A000EE2EF12CEC0EFD1ECE010196B7010E943F
:1003B000A4068E010F5E1F4FCE010596B8010E9464
:1003C000A4068A8991E089278A8BC701B801AE010A
:1003D000475E5F4F0E9475000E94CF05A096E6E041
:1003E0000C94EB1CA0E2B0E0E8EFF1E00C94CF1C21
:1003F00069837A838B839C832D833E834F835887C5
:10040000F9E0EF2EF12CEC0EFD1ECE010196B701A6
:100410000E94A4068E010F5E1F4FCE010596B80103
:100420000E94A406C701B801AE01475E5F4F0E945B
:1004300075000E94CF05A096E6E00C94EB1CA0E2AC
:10044000B0E0E5E2F2E00C94C31C69837A838B830D
:100450009C832D833E834F835887CE010196BE0136
:10046000675F7F4F0E94A406CE010596BE016F5EB6
:100470007F4F0E94A4069985923088F08989823046
:10048000C8F0943019F4823051F404C0843029F457
:10049000923081F489E790E0C6C0923049F420E0C0
:1004A0009A858A89981321E02A87CE010996BBC0D4
:1004B000823049F420E09A858A89981321E02A8BBA
:1004C000CE014196B0C02D843E844F8458886D88FB
:1004D0007E888F88988CEE24FF248701AA24BB2471
:1004E000650140E050E060E070E0E0E0F0E0C10174
:1004F00081709070892BE9F0E60CF71C081D191D1E
:100500009A01AB012A0D3B1D4C1D5D1D80E090E062
:10051000A0E0B0E0E614F7040805190520F481E036
:1005200090E0A0E0B0E0BA01A901480F591F6A1F8E
:100530007B1FAA0CBB1CCC1CDD1C97FE08C081E0F5
:1005400090E0A0E0B0E0A82AB92ACA2ADB2A3196B6
:10055000E032F10549F0660C771C881C991C569412
:10056000479437942794C3CFFA85EA892B893C892D
:100570008B859C85280F391F2E5F3F4F17C0CA01FE
:1005800081709070892B61F016950795F794E79428
:1005900080E090E0A0E0B0E8E82AF92A0A2B1B2BC3
:1005A00076956795579547952F5F3F4F77FDE7CF36
:1005B0000CC0440F551F661F771F17FD4160EE0CDE
:1005C000FF1C001F111F21503040403090E05907A0
:1005D00090E0690790E4790760F32B8F3C8FDB0193
:1005E000CA018F779070A070B07080349105A1051A
:1005F000B10561F447FD0AC0E114F10401051105DC
:1006000029F0405C5F4F6F4F7F4F40781A8EFE1786
:1006100011F081E08A8F4D8F5E8F6F8F78A383E01A
:10062000898FCE0149960E94CF05A096E2E10C94F5
:10063000DF1CA8E1B0E0EFE1F3E00C94CB1C698390
:100640007A838B839C832D833E834F835887B9E0C5
:10065000EB2EF12CEC0EFD1ECE010196B7010E948F
:10066000A4068E010F5E1F4FCE010596B8010E94B1
:10067000A4062985223008F47EC03989323010F46E
:10068000B8017CC08A859A8989278A87243011F02D
:10069000223031F4231709F06EC069E770E06EC0B4
:1006A000343039F41D861E861F86188A1C861B86E8
:1006B00004C0323021F484E08987B7015FC02B8504
:1006C0003C858B899C89281B390B3C872B87ED84C3
:1006D000FE840F851889AD88BE88CF88D88CEA142F
:1006E000FB040C051D0540F4EE0CFF1C001F111F40
:1006F000215030403C872B8720E030E040E050E044
:1007000080E090E0A0E0B0E460E070E0EA14FB0478
:100710000C051D0540F0282B392B4A2B5B2BEA18C2
:10072000FB080C091D09B695A79597958795EE0CC2
:10073000FF1C001F111F6F5F7F4F6F31710531F775
:10074000DA01C9018F779070A070B0708034910584
:10075000A105B10561F427FD0AC0E114F10401050A
:10076000110529F0205C3F4F4F4F5F4F20782D87B8
:100770003E874F87588BBE01675F7F4FCB010E943A
:10078000CF056896EAE00C94E71CA8E1B0E0EBEC3A
:10079000F3E00C94CF1C69837A838B839C832D8335
:1007A0003E834F83588789E0E82EF12CEC0EFD1E26
:1007B000CE010196B7010E94A4068E010F5E1F4F65
:1007C000CE010596B8010E94A4068985823040F0CA
:1007D0008989823028F0C701B8010E941C0701C036
:1007E0008FEF6896E6E00C94EB1CA8E1B0E0EBEF2D
:1007F000F3E00C94CF1C69837A838B839C832D83D5
:100800003E834F83588789E0E82EF12CEC0EFD1EC5
:10081000CE010196B7010E94A4068E010F5E1F4F04
:10082000CE010596B8010E94A4068985823040F069
:100830008989823028F0C701B8010E941C0701C0D5
:100840008FEF6896E6E00C94EB1CA8E1B0E0EBE2D9
:10085000F4E00C94CF1C69837A838B839C832D8373
:100860003E834F83588789E0E82EF12CEC0EFD1E65
:10087000CE010196B7010E94A4068E010F5E1F4FA4
:10088000CE010596B8010E94A4068985823040F009
:100890008989823028F0C701B8010E941C0701C075
:1008A00081E06896E6E00C94EB1CA8E0B0E0EBE594
:1008B000F4E00C94CC1C9B01AC0183E08983DA0149
:1008C000C9018827B7FD83959927AA27BB27B82E8A
:1008D000211531054105510519F482E089833AC09B
:1008E0008823A9F0203080E0380780E0480780E8BE
:1008F000580729F460E070E080E09FEC30C0EE24FF
:10090000FF248701E21AF30A040B150B02C07901D8
:100910008A018EE1C82ED12CDC82CB82ED82FE8250
:100920000F831887C801B7010E9480050197181628
:10093000190684F4082E04C0EE0CFF1C001F111FC2
:100940000A94D2F7ED82FE820F831887C81AD90A5B
:10095000DC82CB82BA82CE0101960E94CF05289616
:10096000E9E00C94E81CACE0B0E0E9EBF4E00C94B6
:10097000D31C69837A838B839C83CE010196BE014D
:100980006B5F7F4F0E94A4068D81823061F18230BF
:1009900050F1843021F48E81882351F12EC02F81B3
:1009A000388537FD20C06E812F3131051CF066235C
:1009B000F9F023C08EE190E0821B930B29853A85E4
:1009C0004B855C8504C056954795379527958A9544
:1009D000D2F76623B1F050954095309521953F4F61
:1009E0004F4F5F4F0EC020E030E040E050E009C0C4
:1009F0002FEF3FEF4FEF5FE704C020E030E040E033
:100A000050E8B901CA012C96E2E00C94EF1CA8E072
:100A1000B0E0EDE0F5E00C94CB1C7B018C0161159E
:100A200071058105910519F482E0898360C083E036
:100A300089838EE1C82ED12CDC82CB82ED82FE82AE
:100A40000F831887C801B7010E948005FC01319708
:100A5000F7FF3BC0222733272E1B3F0B57016801AE
:100A6000022E04C0D694C794B794A7940A94D2F7E0
:100A700040E050E060E070E081E090E0A0E0B0E0B5
:100A800004C0880F991FAA1FBB1F2A95D2F7019790
:100A9000A109B1098E219F21A023B1230097A105AF
:100AA000B10521F041E050E060E070E04A295B29A7
:100AB0006C297D294D835E836F8378878EE190E07A
:100AC0008E1B9F0B9C838B8312C0309781F00E2E60
:100AD00004C0EE0CFF1C001F111F0A94D2F7ED8218
:100AE000FE820F831887CE1ADF0ADC82CB821A823D
:100AF000CE0101960E94CF052896EAE00C94E71CEF
:100B0000EF92FF920F931F937B018C0180E0E81618
:100B100080E0F80681E0080780E0180788F48FEF8E
:100B2000E816F1040105110531F028F088E090E0A5
:100B3000A0E0B0E017C080E090E0A0E0B0E012C01C
:100B400080E0E81680E0F80680E0080781E01807FA
:100B500028F088E190E0A0E0B0E004C080E190E0FF
:100B6000A0E0B0E020E230E040E050E0281B390B8C
:100B70004A0B5B0B04C016950795F794E7948A958A
:100B8000D2F7F701EF57FF4F8081281B3109410948
:100B90005109C9011F910F91FF90EF900895DF92C5
:100BA000EF92FF920F931F93FC01E480F580068182
:100BB0001781D1808081823048F480E090E0A0E10C
:100BC000B0E0E82AF92A0A2B1B2BA5C0843009F4CF
:100BD0009FC0823021F4EE24FF24870105C0E11478
:100BE000F1040105110519F4E0E0F0E096C062811E
:100BF00073819FEF623879070CF05BC022E83FEF0A
:100C0000261B370B2A3131052CF020E030E040E084
:100C100050E02AC0B801A701022E04C0769567955E
:100C2000579547950A94D2F781E090E0A0E0B0E0B4
:100C300004C0880F991FAA1FBB1F2A95D2F70197DE
:100C4000A109B1098E219F21A023B1230097A105FD
:100C5000B10521F081E090E0A0E0B0E09A01AB01A5
:100C6000282B392B4A2B5B2BDA01C9018F77907027
:100C7000A070B07080349105A105B10539F427FF4B
:100C800009C0205C3F4F4F4F5F4F04C0215C3F4F76
:100C90004F4F5F4FE0E0F0E02030A0E03A07A0E0E7
:100CA0004A07A0E45A0710F0E1E0F0E079018A0178
:100CB00027C06038710564F5FB01E158FF4FD8018A
:100CC000C7018F779070A070B07080349105A10536
:100CD000B10539F4E7FE0DC080E490E0A0E0B0E09B
:100CE00004C08FE390E0A0E0B0E0E80EF91E0A1F18
:100CF0001B1F17FF05C016950795F794E7943196CB
:100D000087E016950795F794E7948A95D1F705C083
:100D1000EE24FF248701EFEFF0E06E2F6795662742
:100D20006795902F9F77D794DD24D7948E2F869543
:100D3000492F462B582F5D29B701CA011F910F91EA
:100D4000FF90EF90DF900895FC01DB01408151811D
:100D50002281622F6F7770E0221F2227221F93814A
:100D6000892F880F822B282F30E0991F9927991FF0
:100D700011969C93119721153105A9F5411551053F
:100D80006105710511F482E037C082E89FEF139688
:100D90009C938E9312979A01AB0167E0220F331F49
:100DA000441F551F6A95D1F783E08C930DC0220F25
:100DB000331F441F551F12968D919C9113970197D5
:100DC00013969C938E931297203080E0380780E032
:100DD000480780E4580758F314962D933D934D939C
:100DE0005C93179708952F3F310579F4411551050C
:100DF0006105710519F484E08C93089564FF03C0C4
:100E000081E08C9312C01C9210C02F573040139673
:100E10003C932E93129783E08C9387E0440F551FE9
:100E2000661F771F8A95D1F7706414964D935D9372
:100E30006D937C93179708951F93DC01FB019C91A0
:100E4000923008F447C08081823008F443C0943067
:100E500051F411961C91843099F58181682F70E0CE
:100E6000611B71093FC0843021F0923031F482302F
:100E7000B9F18181882389F12DC011961C911197B8
:100E80008230F1F081811817D9F412962D913C919E
:100E90001397828193818217930794F0281739075B
:100EA000BCF014968D919D910D90BC91A02D248144
:100EB000358146815781281739074A075B0718F49F
:100EC000112341F00AC082179307A407B50740F425
:100ED000112319F061E070E005C06FEF7FEF02C0F1
:100EE00060E070E0CB011F910895DF93CF9300D0B5
:100EF0000F92CDB7DEB79B838A8319820EC089819A
:100F0000282F30E08A819B81FC01E20FF31F808152
:100F10000E946B0989818F5F89838981282F30E046
:100F20008A819B81FC01E20FF31F8081882339F7BE
:100F30000F900F900F90CF91DF910895DF93CF9393
:100F4000CDB7DEB72E970FB6F894DEBF0FBECDBF7C
:100F50009E878D871A8219828D859E85009711F54F
:100F600080E30E946B0939C08A81E82FF0E08D850B
:100F70009E852AE030E0B9010E948D1C282F205D5B
:100F8000CE010396E80FF91F20838D859E852AE008
:100F900030E0B9010E948D1CCB019E878D878A812C
:100FA0008F5F8A838D859E850097F1F68A8189837C
:100FB00011C08981882F90E09C0121503040CE01E2
:100FC0000396FC01E20FF31F80810E946B09898167
:100FD000815089838981882361F72E960FB6F89412
:100FE000DEBF0FBECDBFCF91DF9108950F931F934A
:100FF000DF93CF9300D00F92CDB7DEB79B838A8368
:1010000019828981282F30E08A819B818C01020F0F
:10101000131F0E948509F80180830FC089818F5FAB
:1010200089838981282F30E08A819B818C01020F7E
:10103000131F0E948509F80180838981282F30E0E1
:101040008A819B81FC01E20FF31F80818D3031F793
:101050008981282F30E08A819B81FC01E20FF31FF8
:1010600010820F900F900F90CF91DF911F910F91F1
:101070000895DF93CF9300D000D000D0CDB7DEB776
:101080009E838D831C821B821A82198214C08B81DD
:10109000282F30E08D819E81FC01E20FF31F8081BB
:1010A000282F30E089819A81820F931F9A83898348
:1010B0008B818F5F8B838B81282F30E08D819E8188
:1010C000FC01E20FF31F8081882309F78B810E94C6
:1010D0006B090EC08C81282F30E08D819E81FC0130
:1010E000E20FF31F80810E946B098C818F5F8C83DC
:1010F0008C81282F30E08D819E81FC01E20FF31F4F
:101100008081882339F789810E946B0989819A81BE
:10111000892F99270E946B0926960FB6F894DEBF97
:101120000FBECDBFCF91DF9108950F931F93DF9333
:10113000CF93CDB7DEB72D970FB6F894DEBF0FBEB5
:10114000CDBF9C878B870E948509898718861F825F
:101150001E821D821A8620C08A85282F30E08B854A
:101160009C858C01020F131F0E948509F801808362
:101170008A85282F30E08B859C85FC01E20FF31FC8
:101180008081282F30E08D819E81820F931F9E8366
:101190008D838A858F5F8A879A8589859817E0F283
:1011A0000E948509882F90E09C838B830E9485098B
:1011B000882F90E09A83898389819A81382F22270A
:1011C0008B819C81822B932B9E838D8380E064E0B6
:1011D0000E94AC178985882F90E00E94CD1480E092
:1011E00067E00E94AC178D819E810E94CD1480E043
:1011F0006CE00E94AC178F8198850E94CD142D81E0
:101200003E818F8198852817390719F4F1E0FD8711
:1012100001C01D868D852D960FB6F894DEBF0FBEDA
:10122000CDBFCF91DF911F910F910895DF93CF93A1
:1012300000D00F92CDB7DEB71B821A821982ABE2C3
:10124000B0E0EBE2F0E0808182608C938B8180687B
:101250008B838B818F7B8B838B8180618B838B8155
:1012600080628B838B8182608B838B8184608B8394
:10127000AAE2B0E0EAE2F0E080818B7F8C938B8180
:1012800088608B83E0E4F0E08B8180838091F901BA
:101290009091FA019A838983E0E4F0E089819A8150
:1012A000892F99278083E9E2F0E089818083AAE28F
:1012B000B0E0EAE2F0E0808180618C93AAE2B0E0E5
:1012C000EAE2F0E0808188608C930F900F900F909D
:1012D000CF91DF910895DF93CF930F92CDB7DEB713
:1012E0008983EBE2F0E08081829586958770882F74
:1012F00090E0817090700097A1F3ECE2F0E08981BA
:1013000080830F90CF91DF910895DF93CF93CDB776
:10131000DEB7EBE2F0E080818823DCF7ECE2F0E07E
:101320008081CF91DF910895DF93CF9300D00F920A
:10133000CDB7DEB79A838983EBE2F0E08081882322
:101340004CF4ECE2F0E08081E981FA81808381E075
:101350008B8301C01B828B810F900F900F90CF91D8
:10136000DF910895DF93CF93CDB7DEB7E2E5F0E0EC
:101370001082A3E5B0E0E3E5F0E080818F7B8C9301
:10138000A3E5B0E0E3E5F0E08081877F8C93CF9127
:10139000DF910895DF93CF93CDB7DEB7E8E5F0E0B6
:1013A0008081882F90E0817090700097B9F3A8E554
:1013B000B0E0E8E5F0E0808181608C93CF91DF912F
:1013C0000895DF93CF93CDB7DEB7E3E5F0E0108269
:1013D000CF91DF910895EF92FF920F931F93DF93C8
:1013E000CF93CDB7DEB72F970FB6F894DEBF0FBE01
:1013F000CDBF6C877D878E879F8784E090E0A0E0DB
:10140000B0E088879987AA87BB878C859D85AE8544
:10141000BF85288539854A855B85BC01CD010E9441
:10142000A11CDA01C901BC01CD010E940705DC0144
:10143000CB01BC01CD010E941B1DDC01CB01BC0115
:10144000CD010E944900DC01CB018C839D83AE83DA
:10145000BF836C857D858E859F850E940705DC0195
:10146000CB01BC01CD012FE632E143E85CEB0E94E9
:101470001903DC01CB017C018D016C817D818E81A2
:101480009F810E9407059B01AC01C801B7010E9422
:101490001903DC01CB01BC01CD0120E030E040E8C4
:1014A00053E40E94F201DC01CB01BC01CD010E949A
:1014B0004900DC01CB018B83E2E5F0E08B81808386
:1014C000A3E5B0E0E3E5F0E0808184608C931A82CC
:1014D000198207C00E94CA0989819A8101969A835C
:1014E000898389819A819C0140E050E08C819D81B3
:1014F000AE81BF81281739074A075B0758F31A8264
:1015000019820E94E1092F960FB6F894DEBF0FBE34
:10151000CDBFCF91DF911F910F91FF90EF90089574
:10152000EF92FF920F931F93DF93CF93CDB7DEB768
:101530002F970FB6F894DEBF0FBECDBF6C877D87A7
:101540008E879F8784E090E0A0E0B0E0888799874D
:10155000AA87BB878C859D85AE85BF8528EE33E045
:1015600040E050E0BC01CD010E94A11CDA01C9019C
:10157000288539854A855B85BC01CD010E94A11C67
:10158000DA01C901BC01CD010E940705DC01CB01D4
:10159000BC01CD010E941B1DDC01CB01BC01CD01B2
:1015A0000E944900DC01CB018C839D83AE83BF8305
:1015B0008C859D85AE85BF8528EE33E040E050E008
:1015C000BC01CD010E94A11CDA01C901BC01CD0101
:1015D0000E940705DC01CB01BC01CD012FE632E101
:1015E00043E85CEB0E941903DC01CB017C018D0117
:1015F0006C817D818E819F810E9407059B01AC01DA
:10160000C801B7010E941903DC01CB01BC01CD0167
:1016100020E030E040E853E40E94F201DC01CB011D
:10162000BC01CD010E944900DC01CB018B83E2E5C6
:10163000F0E08B818083A3E5B0E0E3E5F0E080811A
:1016400084608C931A82198207C00E94CA0989811A
:101650009A8101969A83898389819A819C0140E0CD
:1016600050E08C819D81AE81BF81281739074A07E0
:101670005B0758F31A8219820E94E1092F960FB670
:10168000F894DEBF0FBECDBFCF91DF911F910F91B8
:10169000FF90EF900895DF93CF93CDB7DEB7E8E5E5
:1016A000F0E080818295869586958370882F90E002
:1016B00081709070009799F3A8E5B0E0E8E5F0E05C
:1016C000808180648C93CF91DF910895DF93CF93D5
:1016D000CDB7DEB7E5E4F0E01082CF91DF91089559
:1016E000EF92FF920F931F93DF93CF93CDB7DEB7A7
:1016F0002F970FB6F894DEBF0FBECDBF6C877D87E6
:101700008E879F8781E490E0A0E0B0E0888799878A
:10171000AA87BB878C859D85AE85BF852885398541
:101720004A855B85BC01CD010E94A11CDA01C9017B
:10173000BC01CD010E940705DC01CB01BC01CD013C
:101740000E941B1DDC01CB01BC01CD010E944900A0
:10175000DC01CB018C839D83AE83BF836C857D854B
:101760008E859F850E940705DC01CB01BC01CD0160
:101770002FE632E143E85EEB0E941903DC01CB0166
:101780007C018D016C817D818E819F810E94070586
:101790009B01AC01C801B7010E941903DC01CB0118
:1017A000BC01CD0120E030E040E853E40E94F201AA
:1017B000DC01CB01BC01CD010E944900DC01CB0161
:1017C0008B83E4E4F0E08B818083A5E4B0E0E5E482
:1017D000F0E0808186608C931A82198207C00E9493
:1017E0004B0B89819A8101969A83898389819A8199
:1017F0009C0140E050E08C819D81AE81BF81281723
:1018000039074A075B0758F31A8219820E94660B50
:101810002F960FB6F894DEBF0FBECDBFCF91DF91EC
:101820001F910F91FF90EF900895DF93CF9300D019
:1018300000D0CDB7DEB78B836C838B818695869580
:1018400086958A838B81877089838A81882361F555
:101850008C818130A1F4ABE3B0E0EBE3F0E0808178
:10186000482F8981282F30E081E090E0022E02C0CD
:10187000880F991F0A94E2F7842B8C93A1C0ABE3E5
:10188000B0E0EBE3F0E08081482F8981282F30E041
:1018900081E090E0022E02C0880F991F0A94E2F7BF
:1018A000809584238C938CC08A81813061F58C81F2
:1018B0008130A1F4A8E3B0E0E8E3F0E08081482FB4
:1018C0008981282F30E081E090E0022E02C0880F4D
:1018D000991F0A94E2F7842B8C9372C0A8E3B0E0BE
:1018E000E8E3F0E08081482F8981282F30E081E013
:1018F00090E0022E02C0880F991F0A94E2F78095AB
:1019000084238C935DC08A81823061F58C81813023
:10191000A1F4A5E3B0E0E5E3F0E08081482F898100
:10192000282F30E081E090E0022E02C0880F991F3E
:101930000A94E2F7842B8C9343C0A5E3B0E0E5E37F
:10194000F0E08081482F8981282F30E081E090E00D
:10195000022E02C0880F991F0A94E2F78095842313
:101960008C932EC08A81833059F58C818130A1F40B
:10197000A2E3B0E0E2E3F0E08081482F8981282FE4
:1019800030E081E090E0022E02C0880F991F0A9497
:10199000E2F7842B8C9314C0A2E3B0E0E2E3F0E022
:1019A0008081482F8981282F30E081E090E0022E4D
:1019B00002C0880F991F0A94E2F7809584238C93C4
:1019C0000F900F900F900F90CF91DF910895DF93BC
:1019D000CF9300D000D00F92CDB7DEB78B837D833D
:1019E0006C838B818695869586958A838B8187709B
:1019F00089838A818823A1F4E9E3F0E08081282F9C
:101A000030E08981882F90E0A90102C05595479563
:101A10008A95E2F7CA018170EC81FD81808344C020
:101A20008A818130A1F4E6E3F0E08081282F30E064
:101A30008981882F90E0A90102C0559547958A9524
:101A4000E2F7CA018170EC81FD8180832DC08A811B
:101A50008230A1F4E3E3F0E08081282F30E0898137
:101A6000882F90E0A90102C0559547958A95E2F725
:101A7000CA018170EC81FD81808316C08A81833028
:101A800099F4E0E3F0E08081282F30E08981882F0D
:101A900090E0A90102C0559547958A95E2F7CA01E1
:101AA0008170EC81FD8180830F900F900F900F90DB
:101AB0000F90CF91DF910895DF93CF9300D0CDB7F2
:101AC000DEB789836A838981882329F4EBE3F0E018
:101AD0008A81808317C08981813029F4E8E3F0E0AE
:101AE0008A8180830FC08981823029F4E5E3F0E0A8
:101AF0008A81808307C08981833021F4E2E3F0E0AA
:101B00008A8180830F900F90CF91DF910895DF93AA
:101B1000CF9300D0CDB7DEB71A8219821A8219820C
:101B2000A3C289819A81880F991F880F991FFC0190
:101B3000EF57FE4F8081882309F09BC089819A81ED
:101B4000880F991F0196880F991FFC01EF57FE4FD0
:101B500080818130E9F4AAE3B0E0EAE3F0E080813B
:101B6000482F89819A81880F991F880F991FFC013E
:101B7000EE57FE4F8081282F30E081E090E0022E6A
:101B800002C0880F991F0A94E2F7842B8C9367C2D6
:101B9000AAE3B0E0EAE3F0E08081482F89819A81EE
:101BA000880F991F880F991FFC01EE57FE4F808107
:101BB000282F30E081E090E0022E02C0880F991FAC
:101BC0000A94E2F7809584238C9389819A81880F07
:101BD000991F880F991FFC01EC57FE4F80818130BF
:101BE000E9F4ABE3B0E0EBE3F0E08081482F8981DA
:101BF0009A81880F991F880F991FFC01EE57FE4F9D
:101C00008081282F30E081E090E0022E02C0880F12
:101C1000991F0A94E2F7842B8C9321C289819A81BF
:101C2000880F991F880F991FFC01EC57FE4F808188
:101C3000813009F014C2ABE3B0E0EBE3F0E0808167
:101C4000482F89819A81880F991F880F991FFC015D
:101C5000EE57FE4F8081282F30E081E090E0022E89
:101C600002C0880F991F0A94E2F7809584238C9311
:101C7000F6C189819A81880F991F880F991FFC01ED
:101C8000EF57FE4F8081813009F09BC089819A8196
:101C9000880F991F0196880F991FFC01EF57FE4F7F
:101CA00080818130E9F4A7E3B0E0E7E3F0E08081F0
:101CB000482F89819A81880F991F880F991FFC01ED
:101CC000EE57FE4F8081282F30E081E090E0022E19
:101CD00002C0880F991F0A94E2F7842B8C93BFC12E
:101CE000A7E3B0E0E7E3F0E08081482F89819A81A3
:101CF000880F991F880F991FFC01EE57FE4F8081B6
:101D0000282F30E081E090E0022E02C0880F991F5A
:101D10000A94E2F7809584238C9389819A81880FB5
:101D2000991F880F991FFC01EC57FE4F808181306D
:101D3000E9F4A8E3B0E0E8E3F0E08081482F89818E
:101D40009A81880F991F880F991FFC01EE57FE4F4B
:101D50008081282F30E081E090E0022E02C0880FC1
:101D6000991F0A94E2F7842B8C9379C189819A8117
:101D7000880F991F880F991FFC01EC57FE4F808137
:101D8000813009F06CC1ABE3B0E0EBE3F0E08081BF
:101D9000482F89819A81880F991F880F991FFC010C
:101DA000EE57FE4F8081282F30E081E090E0022E38
:101DB00002C0880F991F0A94E2F7809584238C93C0
:101DC0004EC189819A81880F991F880F991FFC0144
:101DD000EF57FE4F8081823009F09BC089819A8144
:101DE000880F991F0196880F991FFC01EF57FE4F2E
:101DF00080818130E9F4A4E3B0E0E4E3F0E08081A5
:101E0000482F89819A81880F991F880F991FFC019B
:101E1000EE57FE4F8081282F30E081E090E0022EC7
:101E200002C0880F991F0A94E2F7842B8C9317C184
:101E3000A4E3B0E0E4E3F0E08081482F89819A8157
:101E4000880F991F880F991FFC01EE57FE4F808164
:101E5000282F30E081E090E0022E02C0880F991F09
:101E60000A94E2F7809584238C9389819A81880F64
:101E7000991F880F991FFC01EC57FE4F808181301C
:101E8000E9F4A5E3B0E0E5E3F0E08081482F898143
:101E90009A81880F991F880F991FFC01EE57FE4FFA
:101EA0008081282F30E081E090E0022E02C0880F70
:101EB000991F0A94E2F7842B8C93D1C089819A816F
:101EC000880F991F880F991FFC01EC57FE4F8081E6
:101ED000813009F0C4C0ABE3B0E0EBE3F0E0808117
:101EE000482F89819A81880F991F880F991FFC01BB
:101EF000EE57FE4F8081282F30E081E090E0022EE7
:101F000002C0880F991F0A94E2F7809584238C936E
:101F1000A6C089819A81880F991F880F991FFC019B
:101F2000EF57FE4F8081833009F099C089819A81F3
:101F3000880F991F0196880F991FFC01EF57FE4FDC
:101F400080818130E9F4A1E3B0E0E1E3F0E0808159
:101F5000482F89819A81880F991F880F991FFC014A
:101F6000EE57FE4F8081282F30E081E090E0022E76
:101F700002C0880F991F0A94E2F7842B8C936FC0DC
:101F8000A1E3B0E0E1E3F0E08081482F89819A810C
:101F9000880F991F880F991FFC01EE57FE4F808113
:101FA000282F30E081E090E0022E02C0880F991FB8
:101FB0000A94E2F7809584238C9389819A81880F13
:101FC000991F880F991FFC01EC57FE4F80818130CB
:101FD000E9F4A2E3B0E0E2E3F0E08081482F8981F8
:101FE0009A81880F991F880F991FFC01EE57FE4FA9
:101FF0008081282F30E081E090E0022E02C0880F1F
:10200000991F0A94E2F7842B8C9329C089819A81C5
:10201000880F991F880F991FFC01EC57FE4F808194
:102020008130E9F4ABE3B0E0EBE3F0E08081482FEE
:1020300089819A81880F991F880F991FFC01EE579B
:10204000FE4F8081282F30E081E090E0022E02C018
:10205000880F991F0A94E2F7809584238C938981D5
:102060009A8101969A83898389819A818E3091051C
:102070000CF457CD0F900F90CF91DF910895DF931F
:10208000CF9300D00F92CDB7DEB78B838B8186952F
:10209000869586958A838B81877089838A81882338
:1020A000A1F4ABE3B0E0EBE3F0E08081482F89815D
:1020B000282F30E081E090E0022E02C0880F991FA7
:1020C0000A94E2F784278C9344C08A818130A1F47A
:1020D000A8E3B0E0E8E3F0E08081482F8981282F71
:1020E00030E081E090E0022E02C0880F991F0A9430
:1020F000E2F784278C932DC08A818230A1F4A5E376
:10210000B0E0E5E3F0E08081482F8981282F30E0BE
:1021100081E090E0022E02C0880F991F0A94E2F736
:1021200084278C9316C08A81833099F4A2E3B0E0AF
:10213000E2E3F0E08081482F8981282F30E081E0C0
:1021400090E0022E02C0880F991F0A94E2F78427BC
:102150008C930F900F900F90CF91DF910895DF93A4
:10216000CF93CDB7DEB7A6E2B0E0E6E2F0E0808143
:1021700080688C93A6E2B0E0E6E2F0E080818160C6
:102180008C93A6E2B0E0E6E2F0E0808182608C937E
:10219000A6E2B0E0E6E2F0E0808184608C93A7E202
:1021A000B0E0E7E2F0E0808180648C93A7E2B0E0E9
:1021B000E7E2F0E080818F778C93CF91DF910895F3
:1021C000DF93CF930F92CDB7DEB78983A7E2B0E05C
:1021D000E7E2F0E08081982F907F89818F70892BD2
:1021E0008C93A6E2B0E0E6E2F0E0808180648C931C
:1021F000E6E2F0E08081882F90E080749070009794
:10220000B9F7E4E2F0E0808191810F90CF91DF9106
:102210000895DF93CF93CDB7DEB783E30E94AA1171
:1022200082E30E94AA1188E20E94AA118CE00E9417
:10223000AA1186E00E94AA1181E00E94AA11CF9102
:10224000DF910895DF93CF93CDB7DEB72E970FB60A
:10225000F894DEBF0FBECDBF81E00E94AA1180E0DE
:1022600090E0A0E0B0E48B879C87AD87BE876B854C
:102270007C858D859E8520E030E04AE755E40E940C
:102280001F02DC01CB018F839887A987BA876F81F2
:10229000788589859A8520E030E040E85FE30E94F8
:1022A000250488232CF481E090E09E838D833FC039
:1022B0006F81788589859A8520E03FEF4FE757E465
:1022C0000E94C50318164CF56B857C858D859E850F
:1022D00020E030E040E251E40E941F02DC01CB012B
:1022E000BC01CD010E944900DC01CB019E838D839E
:1022F0000FC080E991E09C838B838B819C81019747
:10230000F1F79C838B838D819E8101979E838D83C2
:102310008D819E81009769F714C06F8178858985CA
:102320009A850E944900DC01CB019E838D838D81BB
:102330009E819A83898389819A810197F1F79A8393
:1023400089832E960FB6F894DEBF0FBECDBFCF9116
:10235000DF910895DF93CF930F92CDB7DEB78983D6
:1023600081E060E00E94150C80E060E00E94150CA6
:10237000898188232CF486E061E00E94150C04C05A
:1023800086E060E00E94150C89818295869586958D
:102390008370882F90E081709070882329F085E009
:1023A00061E00E94150C04C085E060E00E94150CFD
:1023B0008981829586958770882F90E081709070D2
:1023C000882329F084E061E00E94150C04C084E0B9
:1023D00060E00E94150C898182958F70882F90E0B3
:1023E00081709070882329F083E061E00E94150CD1
:1023F00004C083E060E00E94150C0E9436138981BE
:10240000869586958695882F90E0817090708823B8
:1024100029F086E061E00E94150C04C086E060E0CF
:102420000E94150C898186958695882F90E0817091
:102430009070882329F085E061E00E94150C04C0AB
:1024400085E060E00E94150C89818695882F90E0D8
:1024500081709070882329F084E061E00E94150C5F
:1024600004C084E060E00E94150C8981882F90E010
:1024700081709070882329F083E061E00E94150C40
:1024800004C083E060E00E94150C0E9436130F9098
:10249000CF91DF910895DF93CF930F92CDB7DEB741
:1024A000898381E061E00E94150C80E060E00E9479
:1024B000150C898188232CF486E061E00E94150CBC
:1024C00004C086E060E00E94150C898182958695A3
:1024D00086958370882F90E081709070882329F012
:1024E00085E061E00E94150C04C085E060E00E9478
:1024F000150C8981829586958770882F90E0817070
:102500009070882329F084E061E00E94150C04C0DB
:1025100084E060E00E94150C898182958F70882F7D
:1025200090E081709070882329F083E061E00E9440
:10253000150C04C083E060E00E94150C0E94361365
:102540008981869586958695882F90E08170907018
:10255000882329F086E061E00E94150C04C086E023
:1025600060E00E94150C898186958695882F90E001
:1025700081709070882329F085E061E00E94150C3D
:1025800004C085E060E00E94150C89818695882F43
:1025900090E081709070882329F084E061E00E94CF
:1025A000150C04C084E060E00E94150C8981882F1E
:1025B00090E081709070882329F083E061E00E94B0
:1025C000150C04C083E060E00E94150C0E943613D5
:1025D0000F90CF91DF910895DF93CF9300D00F92AA
:1025E000CDB7DEB79B838A8319820EC08981282FDD
:1025F00030E08A819B81FC01E20FF31F80810E9401
:102600004B1289818F5F89838981282F30E08A81ED
:102610009B81FC01E20FF31F8081882339F70F9023
:102620000F900F90CF91DF910895DF93CF9300D05B
:1026300000D0CDB7DEB79A8389836B834C8381E06A
:1026400061E00E94150C80E060E00E94150C8B8117
:102650006C810E94811789819A810E94EC120F90EF
:102660000F900F900F90CF91DF910895DF93CF934C
:10267000CDB7DEB7E0970FB6F894DEBF0FBECDBF83
:1026800082E061E00E94150C80E090E0A0E2B1E4FD
:102690008DA79EA7AFA7B8AB6DA57EA58FA598A95E
:1026A0002BEA3AEA4AEA50E40E941F02DC01CB011D
:1026B00089A79AA7ABA7BCA769A57AA58BA59CA556
:1026C00020E030E040E85FE30E94250488231CF40A
:1026D00081E088A791C069A57AA58BA59CA520E07B
:1026E00030E04FE753E40E94C50318160CF07BC09E
:1026F0006DA57EA58FA598A920E030E04AE754E4B7
:102700000E941903DC01CB018CA39DA3AEA3BFA340
:102710006CA17DA18EA19FA120E030E04AE755E4A5
:102720000E941F02DC01CB0188A399A3AAA3BBA32B
:1027300068A179A18AA19BA120E030E040E85FE395
:102740000E94250488232CF481E090E09F8F8E8FD7
:102750003FC068A179A18AA19BA120E03FEF4FE78C
:1027600057E40E94C50318164CF56CA17DA18EA1FB
:102770009FA120E030E040E251E40E941F02DC0112
:10278000CB01BC01CD010E944900DC01CB019F8F30
:102790008E8F0FC080E991E09D8F8C8F8C8D9D8DE9
:1027A0000197F1F79D8F8C8F8E8D9F8D01979F8F55
:1027B0008E8F8E8D9F8D009769F724C068A179A1B7
:1027C0008AA19BA10E944900DC01CB019F8F8E8FC3
:1027D0008E8D9F8D9B8F8A8F8A8D9B8D0197F1F7B0
:1027E0009B8F8A8F0FC069A57AA58BA59CA50E9497
:1027F0004900DC01CB0188A788A5898F898D8A953E
:10280000F1F7898F82E060E00E94150C80E090E093
:10281000AAEFB4E48D8B9E8BAF8BB88F6D897E89C8
:102820008F89988D2BEA3AEA4AEA50E40E941F0207
:10283000DC01CB01898B9A8BAB8BBC8B69897A8944
:102840008B899C8920E030E040E85FE30E9425040A
:1028500088231CF481E0888B91C069897A898B89EF
:102860009C8920E030E04FE753E40E94C50318162E
:102870000CF07BC06D897E898F89988D20E030E0D7
:102880004AE754E40E941903DC01CB018C879D8741
:10289000AE87BF876C857D858E859F8520E030E083
:1028A0004AE755E40E941F02DC01CB018887998723
:1028B000AA87BB87688579858A859B8520E030E07B
:1028C00040E85FE30E94250488232CF481E090E037
:1028D0009F838E833FC0688579858A859B8520E0AC
:1028E0003FEF4FE757E40E94C50318164CF56C857F
:1028F0007D858E859F8520E030E040E251E40E9496
:102900001F02DC01CB01BC01CD010E944900DC01AA
:10291000CB019F838E830FC080E991E09D838C83E0
:102920008C819D810197F1F79D838C838E819F819E
:1029300001979F838E838E819F81009769F724C0C2
:10294000688579858A859B850E944900DC01CB01D9
:102950009F838E838E819F819B838A838A819B81C3
:102960000197F1F79B838A830FC069897A898B89E4
:102970009C890E944900DC01CB01888B888989836E
:1029800089818A95F1F78983E0960FB6F894DEBFC6
:102990000FBECDBFCF91DF910895DF93CF93CDB719
:1029A000DEB72E970FB6F894DEBF0FBECDBF9E8761
:1029B0008D8781E061E00E94150C80E060E00E945C
:1029C000150C1A8219828D859E85009711F580E37A
:1029D0000E944B1239C08A81E82FF0E08D859E85D8
:1029E0002AE030E0B9010E948D1C282F205DCE0125
:1029F0000396E80FF91F20838D859E852AE030E03D
:102A0000B9010E948D1CCB019E878D878A818F5FC3
:102A10008A838D859E850097F1F68A81898311C00E
:102A20008981882F90E09C0121503040CE0103968F
:102A3000FC01E20FF31F80810E944B1289818150BB
:102A400089838981882361F72E960FB6F894DEBFBB
:102A50000FBECDBFCF91DF910895DF93CF93CDB758
:102A6000DEB7A2970FB6F894DEBF0FBECDBF98A316
:102A70008F8F69A34AA381E061E00E94150C80E07A
:102A800060E00E94150C89A1813009F076C080E8D1
:102A90000E94AA1180E090E0A0E8BFE3898F9A8F9E
:102AA000AB8FBC8F698D7A8D8B8D9C8D20E030E053
:102AB0004AE755E40E941F02DC01CB018D8B9E8BFF
:102AC000AF8BB88F6D897E898F89988D20E030E03B
:102AD00040E85FE30E94250488232CF481E090E025
:102AE0009C8B8B8B3FC06D897E898F89988D20E070
:102AF0003FEF4FE757E40E94C50318164CF5698D68
:102B00007A8D8B8D9C8D20E030E040E251E40E9474
:102B10001F02DC01CB01BC01CD010E944900DC0198
:102B2000CB019C8B8B8B0FC080E991E09A8B898BBA
:102B300089899A890197F1F79A8B898B8B899C896E
:102B400001979C8B8B8B8B899C89009769F78EC032
:102B50006D897E898F89988D0E944900DC01CB01A7
:102B60009C8B8B8B8B899C89988B8F878F85988981
:102B70000197F1F7988B8F8779C089A1823009F08E
:102B800075C080EC0E94AA1180E090E0A0E2B1E460
:102B90008B879C87AD87BE876B857C858D859E8561
:102BA00020E030E04AE755E40E941F02DC01CB013F
:102BB0008F839887A987BA876F81788589859A8559
:102BC00020E030E040E85FE30E94250488232CF4F5
:102BD00081E090E09E838D833FC06F8178858985F9
:102BE0009A8520E03FEF4FE757E40E94C50318168F
:102BF0004CF56B857C858D859E8520E030E040E23C
:102C000051E40E941F02DC01CB01BC01CD010E94F6
:102C10004900DC01CB019E838D830FC080E991E0E8
:102C20009C838B838B819C810197F1F79C838B83A1
:102C30008D819E8101979E838D838D819E810097DA
:102C400069F714C06F81788589859A850E9449004B
:102C5000DC01CB019E838D838D819E819A83898344
:102C600089819A810197F1F79A83898381E090E0C5
:102C70009E8F8D8F08C08CE10E94AA118D8D9E8D34
:102C800001969E8F8D8F8AA1282F30E08D8D9E8D8D
:102C90002817390784F78F8D98A10E94CD14A2962A
:102CA0000FB6F894DEBF0FBECDBFCF91DF91089570
:102CB000DF93CF93CDB7DEB7A1970FB6F894DEBF01
:102CC0000FBECDBF8F8F68A349A381E061E00E9452
:102CD000150C80E060E00E94150C88A1813009F09D
:102CE00076C080E80E94AA1180E090E0A0E8BFE3EF
:102CF000898F9A8FAB8FBC8F698D7A8D8B8D9C8DD0
:102D000020E030E04AE755E40E941F02DC01CB01DD
:102D10008D8B9E8BAF8BB88F6D897E898F89988DB7
:102D200020E030E040E85FE30E94250488232CF493
:102D300081E090E09C8B8B8B3FC06D897E898F8971
:102D4000988D20E03FEF4FE757E40E94C503181627
:102D50004CF5698D7A8D8B8D9C8D20E030E040E2C2
:102D600051E40E941F02DC01CB01BC01CD010E9495
:102D70004900DC01CB019C8B8B8B0FC080E991E07B
:102D80009A8B898B89899A890197F1F79A8B898B1C
:102D90008B899C8901979C8B8B8B8B899C89009755
:102DA00069F78EC06D897E898F89988D0E94490050
:102DB000DC01CB019C8B8B8B8B899C89988B8F87BB
:102DC0008F8598890197F1F7988B8F8779C088A1B3
:102DD000823009F075C080EC0E94AA1180E090E07A
:102DE000A0E2B1E48B879C87AD87BE876B857C852D
:102DF0008D859E8520E030E04AE755E40E941F0261
:102E0000DC01CB018F839887A987BA876F8178858A
:102E100089859A8520E030E040E85FE30E94250440
:102E200088232CF481E090E09E838D833FC06F81E6
:102E3000788589859A8520E03FEF4FE757E40E9427
:102E4000C50318164CF56B857C858D859E8520E025
:102E500030E040E251E40E941F02DC01CB01BC01E2
:102E6000CD010E944900DC01CB019E838D830FC000
:102E700080E991E09C838B838B819C810197F1F7A2
:102E80009C838B838D819E8101979E838D838D8111
:102E90009E81009769F714C06F81788589859A852E
:102EA0000E944900DC01CB019E838D838D819E8130
:102EB0009A83898389819A810197F1F79A8389831B
:102EC00081E090E09E8F8D8F08C08CE10E94AA1156
:102ED0008D8D9E8D01969E8F8D8F89A1282F30E03C
:102EE0008D8D9E8D2817390784F78F8D0E944B1288
:102EF000A1960FB6F894DEBF0FBECDBFCF91DF9184
:102F00000895DF93CF9300D000D0CDB7DEB789838B
:102F10006A838A8181508A838981282F30E03C83AB
:102F20002B838B819C818130910531F02B813C81F9
:102F30002230310531F009C08A8180580E94AA11DF
:102F400004C08A8180540E94AA110F900F900F90A4
:102F50000F90CF91DF910895DF93CF9300D0CDB73D
:102F6000DEB789836A838981882341F48A8180312D
:102F700078F48A8180580E94AA110AC08981813020
:102F800039F48A81803120F48A8180540E94AA1108
:102F90000F900F90CF91DF910895DF93CF9300D0E2
:102FA00000D0CDB7DEB78B836C8380E8898380EC5B
:102FB0008A838C81282F30E0CE010196FC01E20F3C
:102FC000F31F90818B81890F0E94AA110F900F909F
:102FD0000F900F90CF91DF910895DF93CF93CDB7EE
:102FE000DEB76C970FB6F894DEBF0FBECDBFA4E37B
:102FF000B0E0E4E3F0E0808180688C93A5E3B0E08A
:10300000E5E3F0E0808180688C9380E090E0A8ECBC
:10301000B2E4898F9A8FAB8FBC8F698D7A8D8B8D3F
:103020009C8D20E030E04AE755E40E941F02DC015D
:10303000CB018D8B9E8BAF8BB88F6D897E898F89ED
:10304000988D20E030E040E85FE30E94250488236B
:103050002CF481E090E09C8B8B8B3FC06D897E8946
:103060008F89988D20E03FEF4FE757E40E94C5031A
:1030700018164CF5698D7A8D8B8D9C8D20E030E093
:1030800040E251E40E941F02DC01CB01BC01CD01F2
:103090000E944900DC01CB019C8B8B8B0FC080E927
:1030A00091E09A8B898B89899A890197F1F79A8B9C
:1030B000898B8B899C8901979C8B8B8B8B899C89B5
:1030C000009769F714C06D897E898F89988D0E9459
:1030D0004900DC01CB019C8B8B8B8B899C89988B65
:1030E0008F878F8598890197F1F7988B8F87A4E355
:1030F000B0E0E4E3F0E0808180688C93A5E3B0E089
:10310000E5E3F0E080818F778C9380E090E0A0EAA7
:10311000B1E48B879C87AD87BE876B857C858D8569
:103120009E8520E030E04AE755E40E941F02DC0162
:10313000CB018F839887A987BA876F817885898526
:103140009A8520E030E040E85FE30E942504882370
:103150002CF481E090E09E838D833FC06F81788561
:1031600089859A8520E03FEF4FE757E40E94C50329
:1031700018164CF56B857C858D859E8520E030E0AA
:1031800040E251E40E941F02DC01CB01BC01CD01F1
:103190000E944900DC01CB019E838D830FC080E932
:1031A00091E09C838B838B819C810197F1F79C83B9
:1031B0008B838D819E8101979E838D838D819E81DE
:1031C000009769F714C06F81788589859A850E9478
:1031D0004900DC01CB019E838D838D819E819A8382
:1031E000898389819A810197F1F79A838983A5E37D
:1031F000B0E0E5E3F0E0808180688C936C960FB6D8
:10320000F894DEBF0FBECDBFCF91DF910895DF935D
:10321000CF93CDB7DEB7A4E3B0E0E4E3F0E0808184
:103220008F778C93E3E3F0E080818823DCF3E3E3A2
:10323000F0E080818823DCF7E3E3F0E080818823FD
:10324000DCF3CF91DF910895DF93CF93CDB7DEB755
:103250006A970FB6F894DEBF0FBECDBF1A8E198ED7
:10326000E1C0E3E3F0E080818823DCF780E090E0D8
:10327000A0EFB1E48D8B9E8BAF8BB88F6D897E896B
:103280008F89988D2BEA3AEA4AEA50E40E941F029D
:10329000DC01CB01898B9A8BAB8BBC8B69897A89DA
:1032A0008B899C8920E030E040E85FE30E942504A0
:1032B00088231CF481E0888B91C069897A898B8985
:1032C0009C8920E030E04FE753E40E94C5031816C4
:1032D0000CF07BC06D897E898F89988D20E030E06D
:1032E0004AE754E40E941903DC01CB018C879D87D7
:1032F000AE87BF876C857D858E859F8520E030E019
:103300004AE755E40E941F02DC01CB0188879987B8
:10331000AA87BB87688579858A859B8520E030E010
:1033200040E85FE30E94250488232CF481E090E0CC
:103330009F838E833FC0688579858A859B8520E041
:103340003FEF4FE757E40E94C50318164CF56C8514
:103350007D858E859F8520E030E040E251E40E942B
:103360001F02DC01CB01BC01CD010E944900DC0140
:10337000CB019F838E830FC080E991E09D838C8376
:103380008C819D810197F1F79D838C838E819F8134
:1033900001979F838E838E819F81009769F724C058
:1033A000688579858A859B850E944900DC01CB016F
:1033B0009F838E838E819F819B838A838A819B8159
:1033C0000197F1F79B838A830FC069897A898B897A
:1033D0009C890E944900DC01CB01888B8889898304
:1033E00089818A95F1F78983E3E3F0E0808188237E
:1033F00054F480910202882F90E0880F991F816019
:103400008093020205C080910202880F809302021D
:10341000E3E3F0E080818823DCF3898D9A8D0196C7
:103420009A8F898F898D9A8D883091050CF419CFE8
:10343000809102026A960FB6F894DEBF0FBECDBF30
:10344000CF91DF910895DF93CF93CDB7DEB70E9480
:10345000ED170E940719CF91DF910895DF93CF9365
:10346000CDB7DEB70E942419809314020E9424195C
:10347000809308020E942419809313020E94241949
:1034800080930A020E9424198093090280911402F9
:10349000282F30E080910802882F90E0280F391FF4
:1034A00080911302882F90E0280F391F80910A0223
:1034B000882F90E0280F391F80910902882F90E013
:1034C0002817390749F080E060E00E94CD1780E6B8
:1034D00090E00E94EC126AC080911402882F90E064
:1034E00023E032E0B9014AE050E00E94FA1C8BE090
:1034F00060E00E94CD1783E092E00E94EC1286E625
:1035000090E00E94EC1280910802882F90E023E066
:1035100032E0B9014AE050E00E94FA1C83E092E0F8
:103520000E94EC1288E690E00E94EC128091130257
:10353000882F90E023E032E0B9014AE050E00E9499
:10354000FA1C86E061E00E94CD1783E092E00E94C1
:10355000EC1286E690E00E94EC1280910A02882F1D
:1035600090E023E032E0B9014AE050E00E94FA1C0A
:1035700083E092E00E94EC128FED0E944B128AE6EB
:1035800090E00E94EC1280910902882F90E023E0E5
:1035900032E0B9014AE050E00E94FA1C83E092E078
:1035A0000E94EC128CE690E00E94EC12CF91DF9129
:1035B0000895DF93CF93CDB7DEB7A1970FB6F894F8
:1035C000DEBF0FBECDBF0E94870D0E9409110E9471
:1035D00016090E94AF1019A218A21F8E1E8E1D8EF2
:1035E0000E94221180E060E00E94AC178EE690E01D
:1035F0000E94EC1281E060E00E94AC1784E790E04A
:103600000E94EC1287E00E94E010CC01A0E0B0E044
:10361000BC01CD010E940705DC01CB01BC01CD013D
:1036200026EF38E24CE950E40E941F02DC01CB0196
:10363000BC01CD010E944900DC01CB018F8F8F8D31
:10364000882F90E0AA2797FDA095BA2FBC01CD0145
:103650000E945504DC01CB01BC01CD0120E030E02B
:1036600040E251E40E941903DC01CB01BC01CD0111
:103670000E94B304DC01CB018F8F80E00E94E01038
:10368000CC01A0E0B0E0BC01CD010E940705DC0147
:10369000CB01BC01CD0126EF38E24CE950E40E9499
:1036A0001F02DC01CB01BC01CD010E944900DC01FD
:1036B000CB0188A388A1882F90E0AA2797FDA09529
:1036C000BA2FBC01CD010E945504DC01CB01BC0125
:1036D000CD0120E030E040E251E40E941903DC011A
:1036E000CB01BC01CD010E94B304DC01CB0188A356
:1036F0008F8D882F90E00E949E0782E70E946B09C1
:1037000088A1882F90E00E949E078DE60E946B0999
:1037100080E06AE00E94AC178F8D882F90E00E94B5
:10372000CD1481E06AE00E94AC1788A1882F90E058
:103730000E94CD1480E090E8ABEBB4E4898F9A8FBF
:10374000AB8FBC8F698D7A8D8B8D9C8D20E030E0A6
:103750004AE755E40E941F02DC01CB018D8B9E8B52
:10376000AF8BB88F6D897E898F89988D20E030E08E
:1037700040E85FE30E94250488232CF481E090E078
:103780009C8B8B8B3FC06D897E898F89988D20E0C3
:103790003FEF4FE757E40E94C50318164CF5698DBB
:1037A0007A8D8B8D9C8D20E030E040E251E40E94C8
:1037B0001F02DC01CB01BC01CD010E944900DC01EC
:1037C000CB019C8B8B8B0FC080E991E09A8B898B0E
:1037D00089899A890197F1F79A8B898B8B899C89C2
:1037E00001979C8B8B8B8B899C89009769F714C000
:1037F0006D897E898F89988D0E944900DC01CB01FB
:103800009C8B8B8B8B899C89988B8F878F859889D4
:103810000197F1F7988B8F870E9422118EE690E036
:103820000E94EC1281E060E00E94AC1784E790E017
:103830000E94EC1280E090E0AAEFB3E48B879C87B3
:10384000AD87BE876B857C858D859E8520E030E0C9
:103850004AE755E40E941F02DC01CB018F83988761
:10386000A987BA876F81788589859A8520E030E0BD
:1038700040E85FE30E94250488232CF481E090E077
:103880009E838D833FC06F81788589859A8520E0EE
:103890003FEF4FE757E40E94C50318164CF56B85C0
:1038A0007C858D859E8520E030E040E251E40E94D9
:1038B0001F02DC01CB01BC01CD010E944900DC01EB
:1038C000CB019E838D830FC080E991E09C838B8325
:1038D0008B819C810197F1F79C838B838D819E81E5
:1038E00001979E838D838D819E81009769F78ACE93
:1038F0006F81788589859A850E944900DC01CB011A
:103900009E838D838D819E819A83898389819A810B
:103910000197F1F79A83898375CEAA1BBB1B51E1EE
:1039200007C0AA1FBB1FA617B70710F0A61BB70B2F
:10393000881F991F5A95A9F780959095BC01CD01D4
:103940000895A1E21A2EAA1BBB1BFD010DC0AA1FE0
:10395000BB1FEE1FFF1FA217B307E407F50720F0F8
:10396000A21BB30BE40BF50B661F771F881F991F73
:103970001A9469F760957095809590959B01AC01BC
:10398000BD01CF0108952F923F924F925F926F92A7
:103990007F928F929F92AF92BF92CF92DF92EF92DF
:1039A000FF920F931F93CF93DF93CDB7DEB7CA1B60
:1039B000DB0B0FB6F894DEBF0FBECDBF09942A888B
:1039C000398848885F846E847D848C849B84AA8433
:1039D000B984C884DF80EE80FD800C811B81AA81C0
:1039E000B981CE0FD11D0FB6F894DEBF0FBECDBF8B
:1039F000ED010895FB019F01E8944230C4F0453287
:103A0000B4F44A3029F497FB1EF4909581959F4FAA
:103A1000642F77270E948D1C805D8A330CF0895DAE
:103A20008193CB010097A1F716F45DE251931082C8
:103A3000C9010C94751D3BD080F09F3740F4911163
:103A40000EF44DC060E070E080E89FE3089526F03A
:103A50001B16611D711D811D01C01BC0882371F4DF
:103A6000772321F09850872B762F07C0662311F417
:103A700099270DC09051862B70E060E02AF09A954E
:103A8000660F771F881FDAF7880F9695879597F945
:103A900008959F3F31F0915020F487957795679571
:103AA000B795880F911D9695879597F9089535D00C
:103AB000A0F0BEE7B91788F4BB279F3860F416164C
:103AC000B11D672F782F8827985FF7CF8695779558
:103AD0006795B11D93959639C8F30895E894BB276F
:103AE00066277727CB0197F90895DC01FC01672F42
:103AF00071917723E1F7329704C07C916D937083C5
:103B00006291AE17BF07C8F3089557FD9058440F50
:103B1000551F59F05F3F71F04795880F97FB991F2C
:103B200061F09F3F79F087950895121613061406E9
:103B3000551FF2CF4695F1DF08C016161706180676
:103B4000991FF1CF86957105610508940895F89441
:023B5000FFCFA5
:103B52004572726F72002E002500430020005261F0
:103B6200696E3D004761733D0000000000000000E7
:103B72000000010202030303030404040404040416
:103B820004050505050505050505050505050505E4
:103B920005060606060606060606060606060606C4
:103BA20006060606060606060606060606060606B3
:103BB2000607070707070707070707070707070794
:103BC2000707070707070707070707070707070783
:103BD2000707070707070707070707070707070773
:103BE2000707070707070707070707070707070763
:103BF2000708080808080808080808080808080844
:103C02000808080808080808080808080808080832
:103C12000808080808080808080808080808080822
:103C22000808080808080808080808080808080812
:103C32000808080808080808080808080808080802
:103C420008080808080808080808080808080808F2
:103C520008080808080808080808080808080808E2
:103C620008080808080808080808080808080808D2
:103C72000800000000000101000002010000040130
:103C8200000005010000030100010001000006011F
:103C92000000070000020700010302000001060005
:103CA2000003060100000000006700330019001045
:103CB200000C000800CF006700330022001900103A
:103CC20000A001CF006700440033002200CF00674C
:103CD200003300220019001000A001CF0067004449
:103CE20000330022004003A001CF008A0067004495
:023CF2000000D0
:00000001FF
